{
  "contractName": "Doctor",
  "abi": [
    {
      "constant": true,
      "inputs": [
        {
          "name": "",
          "type": "uint256"
        }
      ],
      "name": "prescriptions",
      "outputs": [
        {
          "name": "id",
          "type": "uint256"
        },
        {
          "name": "patientHealthCardNumber",
          "type": "string"
        },
        {
          "name": "drugName",
          "type": "string"
        },
        {
          "name": "frequency",
          "type": "string"
        },
        {
          "name": "dosage",
          "type": "string"
        },
        {
          "name": "patientReceived",
          "type": "bool"
        }
      ],
      "payable": false,
      "stateMutability": "view",
      "type": "function"
    },
    {
      "constant": true,
      "inputs": [],
      "name": "patientCount",
      "outputs": [
        {
          "name": "",
          "type": "uint256"
        }
      ],
      "payable": false,
      "stateMutability": "view",
      "type": "function"
    },
    {
      "constant": true,
      "inputs": [],
      "name": "prescriptionCount",
      "outputs": [
        {
          "name": "",
          "type": "uint256"
        }
      ],
      "payable": false,
      "stateMutability": "view",
      "type": "function"
    },
    {
      "constant": true,
      "inputs": [
        {
          "name": "",
          "type": "string"
        }
      ],
      "name": "patients",
      "outputs": [
        {
          "name": "id",
          "type": "uint256"
        },
        {
          "name": "firstName",
          "type": "string"
        },
        {
          "name": "lastName",
          "type": "string"
        },
        {
          "name": "healthCardNumber",
          "type": "string"
        },
        {
          "name": "prescId",
          "type": "uint256"
        },
        {
          "name": "insuranceNm",
          "type": "string"
        }
      ],
      "payable": false,
      "stateMutability": "view",
      "type": "function"
    },
    {
      "constant": true,
      "inputs": [],
      "name": "prescriptionID",
      "outputs": [
        {
          "name": "",
          "type": "uint256"
        }
      ],
      "payable": false,
      "stateMutability": "view",
      "type": "function"
    },
    {
      "constant": true,
      "inputs": [],
      "name": "healthCard",
      "outputs": [
        {
          "name": "",
          "type": "string"
        }
      ],
      "payable": false,
      "stateMutability": "view",
      "type": "function"
    },
    {
      "inputs": [],
      "payable": false,
      "stateMutability": "nonpayable",
      "type": "constructor"
    },
    {
      "constant": false,
      "inputs": [
        {
          "name": "_fname",
          "type": "string"
        },
        {
          "name": "_lname",
          "type": "string"
        },
        {
          "name": "_healthCard",
          "type": "string"
        },
        {
          "name": "_InsuranceNm",
          "type": "string"
        }
      ],
      "name": "addPatient",
      "outputs": [],
      "payable": false,
      "stateMutability": "nonpayable",
      "type": "function"
    },
    {
      "constant": false,
      "inputs": [
        {
          "name": "_healthCard",
          "type": "string"
        },
        {
          "name": "_drugName",
          "type": "string"
        },
        {
          "name": "_frequency",
          "type": "string"
        },
        {
          "name": "_dosage",
          "type": "string"
        }
      ],
      "name": "addPrescription",
      "outputs": [],
      "payable": false,
      "stateMutability": "nonpayable",
      "type": "function"
    },
    {
      "constant": false,
      "inputs": [
        {
          "name": "presid",
          "type": "uint256"
        }
      ],
      "name": "fulfill",
      "outputs": [],
      "payable": false,
      "stateMutability": "nonpayable",
      "type": "function"
    }
  ],
  "bytecode": "0x60806040523480156200001157600080fd5b50620000fa6040518060400160405280600681526020017f506176616e6900000000000000000000000000000000000000000000000000008152506040518060400160405280600681526020017f4d616368686100000000000000000000000000000000000000000000000000008152506040518060400160405280600981526020017f31323334353637383900000000000000000000000000000000000000000000008152506040518060400160405280600d81526020017f52424320496e737572616e636500000000000000000000000000000000000000815250620003b860201b60201c565b620001e26040518060400160405280600981526020017f31323334353637383900000000000000000000000000000000000000000000008152506040518060400160405280600581526020017f416476696c0000000000000000000000000000000000000000000000000000008152506040518060400160405280600581526020017f4461696c790000000000000000000000000000000000000000000000000000008152506040518060400160405280600581526020017f3130206d6c000000000000000000000000000000000000000000000000000000815250620004fe60201b60201c565b620002ca6040518060400160405280600381526020017f4e686900000000000000000000000000000000000000000000000000000000008152506040518060400160405280600581526020017f56756f6e670000000000000000000000000000000000000000000000000000008152506040518060400160405280600c81526020017f313233342d3536372d38393000000000000000000000000000000000000000008152506040518060400160405280600a81526020017f4465734a617264696e7300000000000000000000000000000000000000000000815250620003b860201b60201c565b620003b26040518060400160405280600c81526020017f313233342d3536372d38393000000000000000000000000000000000000000008152506040518060400160405280600881526020017f4361666665696e650000000000000000000000000000000000000000000000008152506040518060400160405280600d81526020017f4576657279203220686f757273000000000000000000000000000000000000008152506040518060400160405280600881526020017f31207461626c6574000000000000000000000000000000000000000000000000815250620004fe60201b60201c565b6200072a565b6001600081548092919060010191905055506040518060c00160405280600154815260200185815260200184815260200183815260200160008152602001828152506000836040518082805190602001908083835b602083106200043257805182526020820191506020810190506020830392506200040d565b6001836020036101000a03801982511681845116808217855250505050505090500191505090815260200160405180910390206000820151816000015560208201518160010190805190602001906200048d9291906200067b565b506040820151816002019080519060200190620004ac9291906200067b565b506060820151816003019080519060200190620004cb9291906200067b565b506080820151816004015560a0820151816005019080519060200190620004f49291906200067b565b5090505050505050565b6003600081548092919060010191905055506040518060c001604052806003548152602001858152602001848152602001838152602001828152602001600015158152506002600060035481526020019081526020016000206000820151816000015560208201518160010190805190602001906200057f9291906200067b565b5060408201518160020190805190602001906200059e9291906200067b565b506060820151816003019080519060200190620005bd9291906200067b565b506080820151816004019080519060200190620005dc9291906200067b565b5060a08201518160050160006101000a81548160ff0219169083151502179055509050506003546000856040518082805190602001908083835b602083106200063b578051825260208201915060208101905060208303925062000616565b6001836020036101000a03801982511681845116808217855250505050505090500191505090815260200160405180910390206004018190555050505050565b828054600181600116156101000203166002900490600052602060002090601f016020900481019282601f10620006be57805160ff1916838001178555620006ef565b82800160010185558215620006ef579182015b82811115620006ee578251825591602001919060010190620006d1565b5b509050620006fe919062000702565b5090565b6200072791905b808211156200072357600081600090555060010162000709565b5090565b90565b6114e3806200073a6000396000f3fe608060405234801561001057600080fd5b50600436106100935760003560e01c8063b655849811610066578063b655849814610561578063c6009d841461057f578063d150d47e14610805578063eedd484a14610823578063ff8e704f146108a657610093565b80630581ee821461009857806331dfc91b14610318578063753b880714610515578063a0303c4114610543575b600080fd5b610316600480360360808110156100ae57600080fd5b81019080803590602001906401000000008111156100cb57600080fd5b8201836020820111156100dd57600080fd5b803590602001918460018302840111640100000000831117156100ff57600080fd5b91908080601f016020809104026020016040519081016040528093929190818152602001838380828437600081840152601f19601f8201169050808301925050505050505091929192908035906020019064010000000081111561016257600080fd5b82018360208201111561017457600080fd5b8035906020019184600183028401116401000000008311171561019657600080fd5b91908080601f016020809104026020016040519081016040528093929190818152602001838380828437600081840152601f19601f820116905080830192505050505050509192919290803590602001906401000000008111156101f957600080fd5b82018360208201111561020b57600080fd5b8035906020019184600183028401116401000000008311171561022d57600080fd5b91908080601f016020809104026020016040519081016040528093929190818152602001838380828437600081840152601f19601f8201169050808301925050505050505091929192908035906020019064010000000081111561029057600080fd5b8201836020820111156102a257600080fd5b803590602001918460018302840111640100000000831117156102c457600080fd5b91908080601f016020809104026020016040519081016040528093929190818152602001838380828437600081840152601f19601f820116905080830192505050505050509192919290505050610b26565b005b6103446004803603602081101561032e57600080fd5b8101908080359060200190929190505050610c99565b60405180878152602001806020018060200180602001806020018615151515815260200185810385528a818151815260200191508051906020019080838360005b838110156103a0578082015181840152602081019050610385565b50505050905090810190601f1680156103cd5780820380516001836020036101000a031916815260200191505b50858103845289818151815260200191508051906020019080838360005b838110156104065780820151818401526020810190506103eb565b50505050905090810190601f1680156104335780820380516001836020036101000a031916815260200191505b50858103835288818151815260200191508051906020019080838360005b8381101561046c578082015181840152602081019050610451565b50505050905090810190601f1680156104995780820380516001836020036101000a031916815260200191505b50858103825287818151815260200191508051906020019080838360005b838110156104d25780820151818401526020810190506104b7565b50505050905090810190601f1680156104ff5780820380516001836020036101000a031916815260200191505b509a505050505050505050505060405180910390f35b6105416004803603602081101561052b57600080fd5b8101908080359060200190929190505050610f42565b005b61054b610f74565b6040518082815260200191505060405180910390f35b610569610f7a565b6040518082815260200191505060405180910390f35b6106386004803603602081101561059557600080fd5b81019080803590602001906401000000008111156105b257600080fd5b8201836020820111156105c457600080fd5b803590602001918460018302840111640100000000831117156105e657600080fd5b91908080601f016020809104026020016040519081016040528093929190818152602001838380828437600081840152601f19601f820116905080830192505050505050509192919290505050610f80565b604051808781526020018060200180602001806020018681526020018060200185810385528a818151815260200191508051906020019080838360005b83811015610690578082015181840152602081019050610675565b50505050905090810190601f1680156106bd5780820380516001836020036101000a031916815260200191505b50858103845289818151815260200191508051906020019080838360005b838110156106f65780820151818401526020810190506106db565b50505050905090810190601f1680156107235780820380516001836020036101000a031916815260200191505b50858103835288818151815260200191508051906020019080838360005b8381101561075c578082015181840152602081019050610741565b50505050905090810190601f1680156107895780820380516001836020036101000a031916815260200191505b50858103825286818151815260200191508051906020019080838360005b838110156107c25780820151818401526020810190506107a7565b50505050905090810190601f1680156107ef5780820380516001836020036101000a031916815260200191505b509a505050505050505050505060405180910390f35b61080d611232565b6040518082815260200191505060405180910390f35b61082b611238565b6040518080602001828103825283818151815260200191508051906020019080838360005b8381101561086b578082015181840152602081019050610850565b50505050905090810190601f1680156108985780820380516001836020036101000a031916815260200191505b509250505060405180910390f35b610b24600480360360808110156108bc57600080fd5b81019080803590602001906401000000008111156108d957600080fd5b8201836020820111156108eb57600080fd5b8035906020019184600183028401116401000000008311171561090d57600080fd5b91908080601f016020809104026020016040519081016040528093929190818152602001838380828437600081840152601f19601f8201169050808301925050505050505091929192908035906020019064010000000081111561097057600080fd5b82018360208201111561098257600080fd5b803590602001918460018302840111640100000000831117156109a457600080fd5b91908080601f016020809104026020016040519081016040528093929190818152602001838380828437600081840152601f19601f82011690508083019250505050505050919291929080359060200190640100000000811115610a0757600080fd5b820183602082011115610a1957600080fd5b80359060200191846001830284011164010000000083111715610a3b57600080fd5b91908080601f016020809104026020016040519081016040528093929190818152602001838380828437600081840152601f19601f82011690508083019250505050505050919291929080359060200190640100000000811115610a9e57600080fd5b820183602082011115610ab057600080fd5b80359060200191846001830284011164010000000083111715610ad257600080fd5b91908080601f016020809104026020016040519081016040528093929190818152602001838380828437600081840152601f19601f8201169050808301925050505050505091929192905050506112d6565b005b6003600081548092919060010191905055506040518060c00160405280600354815260200185815260200184815260200183815260200182815260200160001515815250600260006003548152602001908152602001600020600082015181600001556020820151816001019080519060200190610ba5929190611412565b506040820151816002019080519060200190610bc2929190611412565b506060820151816003019080519060200190610bdf929190611412565b506080820151816004019080519060200190610bfc929190611412565b5060a08201518160050160006101000a81548160ff0219169083151502179055509050506003546000856040518082805190602001908083835b60208310610c595780518252602082019150602081019050602083039250610c36565b6001836020036101000a03801982511681845116808217855250505050505090500191505090815260200160405180910390206004018190555050505050565b6002602052806000526040600020600091509050806000015490806001018054600181600116156101000203166002900480601f016020809104026020016040519081016040528092919081815260200182805460018160011615610100020316600290048015610d4b5780601f10610d2057610100808354040283529160200191610d4b565b820191906000526020600020905b815481529060010190602001808311610d2e57829003601f168201915b505050505090806002018054600181600116156101000203166002900480601f016020809104026020016040519081016040528092919081815260200182805460018160011615610100020316600290048015610de95780601f10610dbe57610100808354040283529160200191610de9565b820191906000526020600020905b815481529060010190602001808311610dcc57829003601f168201915b505050505090806003018054600181600116156101000203166002900480601f016020809104026020016040519081016040528092919081815260200182805460018160011615610100020316600290048015610e875780601f10610e5c57610100808354040283529160200191610e87565b820191906000526020600020905b815481529060010190602001808311610e6a57829003601f168201915b505050505090806004018054600181600116156101000203166002900480601f016020809104026020016040519081016040528092919081815260200182805460018160011615610100020316600290048015610f255780601f10610efa57610100808354040283529160200191610f25565b820191906000526020600020905b815481529060010190602001808311610f0857829003601f168201915b5050505050908060050160009054906101000a900460ff16905086565b60016002600083815260200190815260200160002060050160006101000a81548160ff02191690831515021790555050565b60015481565b60035481565b600081805160208101820180518482526020830160208501208183528095505050505050600091509050806000015490806001018054600181600116156101000203166002900480601f0160208091040260200160405190810160405280929190818152602001828054600181600116156101000203166002900480156110485780601f1061101d57610100808354040283529160200191611048565b820191906000526020600020905b81548152906001019060200180831161102b57829003601f168201915b505050505090806002018054600181600116156101000203166002900480601f0160208091040260200160405190810160405280929190818152602001828054600181600116156101000203166002900480156110e65780601f106110bb576101008083540402835291602001916110e6565b820191906000526020600020905b8154815290600101906020018083116110c957829003601f168201915b505050505090806003018054600181600116156101000203166002900480601f0160208091040260200160405190810160405280929190818152602001828054600181600116156101000203166002900480156111845780601f1061115957610100808354040283529160200191611184565b820191906000526020600020905b81548152906001019060200180831161116757829003601f168201915b505050505090806004015490806005018054600181600116156101000203166002900480601f0160208091040260200160405190810160405280929190818152602001828054600181600116156101000203166002900480156112285780601f106111fd57610100808354040283529160200191611228565b820191906000526020600020905b81548152906001019060200180831161120b57829003601f168201915b5050505050905086565b60045481565b60058054600181600116156101000203166002900480601f0160208091040260200160405190810160405280929190818152602001828054600181600116156101000203166002900480156112ce5780601f106112a3576101008083540402835291602001916112ce565b820191906000526020600020905b8154815290600101906020018083116112b157829003601f168201915b505050505081565b6001600081548092919060010191905055506040518060c00160405280600154815260200185815260200184815260200183815260200160008152602001828152506000836040518082805190602001908083835b6020831061134e578051825260208201915060208101905060208303925061132b565b6001836020036101000a03801982511681845116808217855250505050505090500191505090815260200160405180910390206000820151816000015560208201518160010190805190602001906113a7929190611412565b5060408201518160020190805190602001906113c4929190611412565b5060608201518160030190805190602001906113e1929190611412565b506080820151816004015560a0820151816005019080519060200190611408929190611412565b5090505050505050565b828054600181600116156101000203166002900490600052602060002090601f016020900481019282601f1061145357805160ff1916838001178555611481565b82800160010185558215611481579182015b82811115611480578251825591602001919060010190611465565b5b50905061148e9190611492565b5090565b6114b491905b808211156114b0576000816000905550600101611498565b5090565b9056fea165627a7a723058201b4bbdde70080f0de68b9e33fa5d12aa5afbc0eb13db5516579569290a9e10860029",
  "source": "pragma solidity ^0.5.8;\n\ncontract Doctor {\n    // Store patient accounts\n    mapping(string => Patient) public patients;\n    uint public patientCount;\n\n    mapping(uint => Prescription) public prescriptions;\n    uint public prescriptionCount;\n    uint public prescriptionID;\n    string public healthCard;\n\n    struct Patient {\n        uint id;\n        string firstName;\n        string lastName;\n        string healthCardNumber;\n        uint prescId;\n        string insuranceNm;\n    }\n\n    struct Prescription {\n        uint id;\n        string patientHealthCardNumber;\n        string drugName;\n        string frequency;\n        string dosage;\n        bool patientReceived;\n    }\n\n    // Constructor\n    constructor () public {\n        // read from json file\n        // create patients\n        addPatient(\"Pavani\", \"Machha\", \"123456789\", \"RBC Insurance\");\n        addPrescription(\"123456789\", \"Advil\", \"Daily\", \"10 ml\");\n        addPatient(\"Nhi\", \"Vuong\", \"1234-567-890\", \"DesJardins\");\n        addPrescription(\"1234-567-890\", \"Caffeine\", \"Every 2 hours\", \"1 tablet\");\n    }\n\n    function addPatient(string memory _fname, string memory _lname, string memory _healthCard, string memory _InsuranceNm) public {\n        patientCount++;\n        patients[_healthCard] = Patient(patientCount, _fname, _lname, _healthCard, 0, _InsuranceNm);\n    }\n\n    function addPrescription(string memory _healthCard, string memory _drugName,string memory _frequency,string memory _dosage)public\n    {\n        prescriptionCount ++;\n        prescriptions[prescriptionCount] = Prescription(prescriptionCount,_healthCard,_drugName,_frequency,_dosage,false);\n        patients[_healthCard].prescId = prescriptionCount;\n    }\n\n    function fulfill(uint presid) public\n    {\n        prescriptions[presid].patientReceived = true;\n    }\n}\n",
  "sourcePath": "C:/Users/Faizan/Desktop/BlockMD/contracts/Doctor.sol",
  "compiler": {
    "name": "solc",
    "version": "0.5.8+commit.23d335f2.Emscripten.clang"
  },
  "schemaVersion": "3.0.10",
  "updatedAt": "2019-06-02T15:23:32.269Z",
  "devdoc": {
    "methods": {}
  },
  "userdoc": {
    "methods": {}
  }
}