{
  "contractName": "Doctor",
  "abi": [
    {
      "constant": true,
      "inputs": [
        {
          "name": "",
          "type": "uint256"
        }
      ],
      "name": "prescriptions",
      "outputs": [
        {
          "name": "id",
          "type": "uint256"
        },
        {
          "name": "patientHealthCardNumber",
          "type": "string"
        },
        {
          "name": "drugName",
          "type": "string"
        },
        {
          "name": "frequency",
          "type": "string"
        },
        {
          "name": "dosage",
          "type": "string"
        },
        {
          "name": "patientReceived",
          "type": "bool"
        }
      ],
      "payable": false,
      "stateMutability": "view",
      "type": "function"
    },
    {
      "constant": true,
      "inputs": [],
      "name": "patientCount",
      "outputs": [
        {
          "name": "",
          "type": "uint256"
        }
      ],
      "payable": false,
      "stateMutability": "view",
      "type": "function"
    },
    {
      "constant": true,
      "inputs": [],
      "name": "prescriptionCount",
      "outputs": [
        {
          "name": "",
          "type": "uint256"
        }
      ],
      "payable": false,
      "stateMutability": "view",
      "type": "function"
    },
    {
      "constant": true,
      "inputs": [
        {
          "name": "",
          "type": "string"
        }
      ],
      "name": "patients",
      "outputs": [
        {
          "name": "id",
          "type": "uint256"
        },
        {
          "name": "firstName",
          "type": "string"
        },
        {
          "name": "lastName",
          "type": "string"
        },
        {
          "name": "healthCardNumber",
          "type": "string"
        },
        {
          "name": "prescId",
          "type": "uint256"
        }
      ],
      "payable": false,
      "stateMutability": "view",
      "type": "function"
    },
    {
      "constant": true,
      "inputs": [],
      "name": "prescriptionID",
      "outputs": [
        {
          "name": "",
          "type": "uint256"
        }
      ],
      "payable": false,
      "stateMutability": "view",
      "type": "function"
    },
    {
      "constant": true,
      "inputs": [],
      "name": "healthCard",
      "outputs": [
        {
          "name": "",
          "type": "string"
        }
      ],
      "payable": false,
      "stateMutability": "view",
      "type": "function"
    },
    {
      "inputs": [],
      "payable": false,
      "stateMutability": "nonpayable",
      "type": "constructor"
    },
    {
      "constant": false,
      "inputs": [
        {
          "name": "_fname",
          "type": "string"
        },
        {
          "name": "_lname",
          "type": "string"
        },
        {
          "name": "_healthCard",
          "type": "string"
        }
      ],
      "name": "addPatient",
      "outputs": [],
      "payable": false,
      "stateMutability": "nonpayable",
      "type": "function"
    },
    {
      "constant": false,
      "inputs": [
        {
          "name": "_healthCard",
          "type": "string"
        },
        {
          "name": "_drugName",
          "type": "string"
        },
        {
          "name": "_frequency",
          "type": "string"
        },
        {
          "name": "_dosage",
          "type": "string"
        }
      ],
      "name": "addPrescription",
      "outputs": [],
      "payable": false,
      "stateMutability": "nonpayable",
      "type": "function"
    },
    {
      "constant": false,
      "inputs": [
        {
          "name": "presid",
          "type": "uint256"
        }
      ],
      "name": "fulfill",
      "outputs": [],
      "payable": false,
      "stateMutability": "nonpayable",
      "type": "function"
    }
  ],
  "bytecode": "0x60806040523480156200001157600080fd5b50620000c46040518060400160405280600681526020017f506176616e6900000000000000000000000000000000000000000000000000008152506040518060400160405280600681526020017f4d616368686100000000000000000000000000000000000000000000000000008152506040518060400160405280600981526020017f31323334353637383900000000000000000000000000000000000000000000008152506200034c60201b60201c565b620001ac6040518060400160405280600981526020017f31323334353637383900000000000000000000000000000000000000000000008152506040518060400160405280600581526020017f416476696c0000000000000000000000000000000000000000000000000000008152506040518060400160405280600581526020017f4461696c790000000000000000000000000000000000000000000000000000008152506040518060400160405280600581526020017f3130206d6c0000000000000000000000000000000000000000000000000000008152506200046c60201b60201c565b6200025e6040518060400160405280600381526020017f4e686900000000000000000000000000000000000000000000000000000000008152506040518060400160405280600581526020017f56756f6e670000000000000000000000000000000000000000000000000000008152506040518060400160405280600c81526020017f313233342d3536372d38393000000000000000000000000000000000000000008152506200034c60201b60201c565b620003466040518060400160405280600c81526020017f313233342d3536372d38393000000000000000000000000000000000000000008152506040518060400160405280600881526020017f4361666665696e650000000000000000000000000000000000000000000000008152506040518060400160405280600d81526020017f4576657279203220686f757273000000000000000000000000000000000000008152506040518060400160405280600881526020017f31207461626c65740000000000000000000000000000000000000000000000008152506200046c60201b60201c565b62000698565b6001600081548092919060010191905055506040518060a00160405280600154815260200184815260200183815260200182815260200160008152506000826040518082805190602001908083835b60208310620003c057805182526020820191506020810190506020830392506200039b565b6001836020036101000a03801982511681845116808217855250505050505090500191505090815260200160405180910390206000820151816000015560208201518160010190805190602001906200041b929190620005e9565b5060408201518160020190805190602001906200043a929190620005e9565b50606082015181600301908051906020019062000459929190620005e9565b5060808201518160040155905050505050565b6003600081548092919060010191905055506040518060c00160405280600354815260200185815260200184815260200183815260200182815260200160001515815250600260006003548152602001908152602001600020600082015181600001556020820151816001019080519060200190620004ed929190620005e9565b5060408201518160020190805190602001906200050c929190620005e9565b5060608201518160030190805190602001906200052b929190620005e9565b5060808201518160040190805190602001906200054a929190620005e9565b5060a08201518160050160006101000a81548160ff0219169083151502179055509050506003546000856040518082805190602001908083835b60208310620005a9578051825260208201915060208101905060208303925062000584565b6001836020036101000a03801982511681845116808217855250505050505090500191505090815260200160405180910390206004018190555050505050565b828054600181600116156101000203166002900490600052602060002090601f016020900481019282601f106200062c57805160ff19168380011785556200065d565b828001600101855582156200065d579182015b828111156200065c5782518255916020019190600101906200063f565b5b5090506200066c919062000670565b5090565b6200069591905b808211156200069157600081600090555060010162000677565b5090565b90565b61131e80620006a86000396000f3fe608060405234801561001057600080fd5b50600436106100935760003560e01c8063a0303c4111610066578063a0303c411461072c578063b65584981461074a578063c6009d8414610768578063d150d47e14610982578063eedd484a146109a057610093565b80630581ee82146100985780630c380fc91461031857806331dfc91b14610501578063753b8807146106fe575b600080fd5b610316600480360360808110156100ae57600080fd5b81019080803590602001906401000000008111156100cb57600080fd5b8201836020820111156100dd57600080fd5b803590602001918460018302840111640100000000831117156100ff57600080fd5b91908080601f016020809104026020016040519081016040528093929190818152602001838380828437600081840152601f19601f8201169050808301925050505050505091929192908035906020019064010000000081111561016257600080fd5b82018360208201111561017457600080fd5b8035906020019184600183028401116401000000008311171561019657600080fd5b91908080601f016020809104026020016040519081016040528093929190818152602001838380828437600081840152601f19601f820116905080830192505050505050509192919290803590602001906401000000008111156101f957600080fd5b82018360208201111561020b57600080fd5b8035906020019184600183028401116401000000008311171561022d57600080fd5b91908080601f016020809104026020016040519081016040528093929190818152602001838380828437600081840152601f19601f8201169050808301925050505050505091929192908035906020019064010000000081111561029057600080fd5b8201836020820111156102a257600080fd5b803590602001918460018302840111640100000000831117156102c457600080fd5b91908080601f016020809104026020016040519081016040528093929190818152602001838380828437600081840152601f19601f820116905080830192505050505050509192919290505050610a23565b005b6104ff6004803603606081101561032e57600080fd5b810190808035906020019064010000000081111561034b57600080fd5b82018360208201111561035d57600080fd5b8035906020019184600183028401116401000000008311171561037f57600080fd5b91908080601f016020809104026020016040519081016040528093929190818152602001838380828437600081840152601f19601f820116905080830192505050505050509192919290803590602001906401000000008111156103e257600080fd5b8201836020820111156103f457600080fd5b8035906020019184600183028401116401000000008311171561041657600080fd5b91908080601f016020809104026020016040519081016040528093929190818152602001838380828437600081840152601f19601f8201169050808301925050505050505091929192908035906020019064010000000081111561047957600080fd5b82018360208201111561048b57600080fd5b803590602001918460018302840111640100000000831117156104ad57600080fd5b91908080601f016020809104026020016040519081016040528093929190818152602001838380828437600081840152601f19601f820116905080830192505050505050509192919290505050610b96565b005b61052d6004803603602081101561051757600080fd5b8101908080359060200190929190505050610cae565b60405180878152602001806020018060200180602001806020018615151515815260200185810385528a818151815260200191508051906020019080838360005b8381101561058957808201518184015260208101905061056e565b50505050905090810190601f1680156105b65780820380516001836020036101000a031916815260200191505b50858103845289818151815260200191508051906020019080838360005b838110156105ef5780820151818401526020810190506105d4565b50505050905090810190601f16801561061c5780820380516001836020036101000a031916815260200191505b50858103835288818151815260200191508051906020019080838360005b8381101561065557808201518184015260208101905061063a565b50505050905090810190601f1680156106825780820380516001836020036101000a031916815260200191505b50858103825287818151815260200191508051906020019080838360005b838110156106bb5780820151818401526020810190506106a0565b50505050905090810190601f1680156106e85780820380516001836020036101000a031916815260200191505b509a505050505050505050505060405180910390f35b61072a6004803603602081101561071457600080fd5b8101908080359060200190929190505050610f57565b005b610734610f89565b6040518082815260200191505060405180910390f35b610752610f8f565b6040518082815260200191505060405180910390f35b6108216004803603602081101561077e57600080fd5b810190808035906020019064010000000081111561079b57600080fd5b8201836020820111156107ad57600080fd5b803590602001918460018302840111640100000000831117156107cf57600080fd5b91908080601f016020809104026020016040519081016040528093929190818152602001838380828437600081840152601f19601f820116905080830192505050505050509192919290505050610f95565b60405180868152602001806020018060200180602001858152602001848103845288818151815260200191508051906020019080838360005b8381101561087557808201518184015260208101905061085a565b50505050905090810190601f1680156108a25780820380516001836020036101000a031916815260200191505b50848103835287818151815260200191508051906020019080838360005b838110156108db5780820151818401526020810190506108c0565b50505050905090810190601f1680156109085780820380516001836020036101000a031916815260200191505b50848103825286818151815260200191508051906020019080838360005b83811015610941578082015181840152602081019050610926565b50505050905090810190601f16801561096e5780820380516001836020036101000a031916815260200191505b509850505050505050505060405180910390f35b61098a6111a9565b6040518082815260200191505060405180910390f35b6109a86111af565b6040518080602001828103825283818151815260200191508051906020019080838360005b838110156109e85780820151818401526020810190506109cd565b50505050905090810190601f168015610a155780820380516001836020036101000a031916815260200191505b509250505060405180910390f35b6003600081548092919060010191905055506040518060c00160405280600354815260200185815260200184815260200183815260200182815260200160001515815250600260006003548152602001908152602001600020600082015181600001556020820151816001019080519060200190610aa292919061124d565b506040820151816002019080519060200190610abf92919061124d565b506060820151816003019080519060200190610adc92919061124d565b506080820151816004019080519060200190610af992919061124d565b5060a08201518160050160006101000a81548160ff0219169083151502179055509050506003546000856040518082805190602001908083835b60208310610b565780518252602082019150602081019050602083039250610b33565b6001836020036101000a03801982511681845116808217855250505050505090500191505090815260200160405180910390206004018190555050505050565b6001600081548092919060010191905055506040518060a00160405280600154815260200184815260200183815260200182815260200160008152506000826040518082805190602001908083835b60208310610c085780518252602082019150602081019050602083039250610be5565b6001836020036101000a0380198251168184511680821785525050505050509050019150509081526020016040518091039020600082015181600001556020820151816001019080519060200190610c6192919061124d565b506040820151816002019080519060200190610c7e92919061124d565b506060820151816003019080519060200190610c9b92919061124d565b5060808201518160040155905050505050565b6002602052806000526040600020600091509050806000015490806001018054600181600116156101000203166002900480601f016020809104026020016040519081016040528092919081815260200182805460018160011615610100020316600290048015610d605780601f10610d3557610100808354040283529160200191610d60565b820191906000526020600020905b815481529060010190602001808311610d4357829003601f168201915b505050505090806002018054600181600116156101000203166002900480601f016020809104026020016040519081016040528092919081815260200182805460018160011615610100020316600290048015610dfe5780601f10610dd357610100808354040283529160200191610dfe565b820191906000526020600020905b815481529060010190602001808311610de157829003601f168201915b505050505090806003018054600181600116156101000203166002900480601f016020809104026020016040519081016040528092919081815260200182805460018160011615610100020316600290048015610e9c5780601f10610e7157610100808354040283529160200191610e9c565b820191906000526020600020905b815481529060010190602001808311610e7f57829003601f168201915b505050505090806004018054600181600116156101000203166002900480601f016020809104026020016040519081016040528092919081815260200182805460018160011615610100020316600290048015610f3a5780601f10610f0f57610100808354040283529160200191610f3a565b820191906000526020600020905b815481529060010190602001808311610f1d57829003601f168201915b5050505050908060050160009054906101000a900460ff16905086565b60016002600083815260200190815260200160002060050160006101000a81548160ff02191690831515021790555050565b60015481565b60035481565b600081805160208101820180518482526020830160208501208183528095505050505050600091509050806000015490806001018054600181600116156101000203166002900480601f01602080910402602001604051908101604052809291908181526020018280546001816001161561010002031660029004801561105d5780601f106110325761010080835404028352916020019161105d565b820191906000526020600020905b81548152906001019060200180831161104057829003601f168201915b505050505090806002018054600181600116156101000203166002900480601f0160208091040260200160405190810160405280929190818152602001828054600181600116156101000203166002900480156110fb5780601f106110d0576101008083540402835291602001916110fb565b820191906000526020600020905b8154815290600101906020018083116110de57829003601f168201915b505050505090806003018054600181600116156101000203166002900480601f0160208091040260200160405190810160405280929190818152602001828054600181600116156101000203166002900480156111995780601f1061116e57610100808354040283529160200191611199565b820191906000526020600020905b81548152906001019060200180831161117c57829003601f168201915b5050505050908060040154905085565b60045481565b60058054600181600116156101000203166002900480601f0160208091040260200160405190810160405280929190818152602001828054600181600116156101000203166002900480156112455780601f1061121a57610100808354040283529160200191611245565b820191906000526020600020905b81548152906001019060200180831161122857829003601f168201915b505050505081565b828054600181600116156101000203166002900490600052602060002090601f016020900481019282601f1061128e57805160ff19168380011785556112bc565b828001600101855582156112bc579182015b828111156112bb5782518255916020019190600101906112a0565b5b5090506112c991906112cd565b5090565b6112ef91905b808211156112eb5760008160009055506001016112d3565b5090565b9056fea165627a7a72305820bd3029294f0835aaa9ccad8a993ac1ade274c6c6a51366f577a11ef18244260e0029",
  "source": "pragma solidity ^0.5.8;\n\ncontract Doctor {\n    // Store patient accounts\n    mapping(string => Patient) public patients;\n    uint public patientCount;\n\n    mapping(uint => Prescription) public prescriptions;\n    uint public prescriptionCount;\n    uint public prescriptionID;\n    string public healthCard;\n\n    struct Patient {\n        uint id;\n        string firstName;\n        string lastName;\n        string healthCardNumber;\n        uint prescId;\n    }\n\n    struct Prescription {\n        uint id;\n        string patientHealthCardNumber;\n        string drugName;\n        string frequency;\n        string dosage;\n        bool patientReceived;\n    }\n\n    // Constructor\n    constructor () public {\n        // read from json file\n        // create patients\n        addPatient(\"Pavani\", \"Machha\", \"123456789\");\n        addPrescription(\"123456789\", \"Advil\", \"Daily\", \"10 ml\");\n        addPatient(\"Nhi\", \"Vuong\", \"1234-567-890\");\n        addPrescription(\"1234-567-890\", \"Caffeine\", \"Every 2 hours\", \"1 tablet\");\n    }\n\n    function addPatient(string memory _fname, string memory _lname, string memory _healthCard) public {\n        patientCount++;\n        patients[_healthCard] = Patient(patientCount, _fname, _lname, _healthCard, 0);\n    }\n\n    function addPrescription(string memory _healthCard, string memory _drugName,string memory _frequency,string memory _dosage)public\n    {\n        prescriptionCount ++;\n        prescriptions[prescriptionCount] = Prescription(prescriptionCount,_healthCard,_drugName,_frequency,_dosage,false);\n        patients[_healthCard].prescId = prescriptionCount;\n    }\n\n     /* function fulfillPrescription(string memory _healthCard) public {\n        //string memory prescID = patients[_healthCard].prescId;\n        //string memory healthCard = prescriptions[prescID].patientHealthCardNumber;\n\n        prescriptionID = patients[_healthCard].prescId;\n        healthCard = prescriptions[prescriptionID].patientHealthCardNumber;\n\n        require(keccak256(abi.encodePacked(healthCard))!=keccak256(abi.encodePacked(_healthCard)), \"Invalid Patient ID\");\n        // Fulfill\n        prescriptions[prescriptionID].patientReceived = true;\n    }  */\n\n    function fulfill(uint presid) public\n    {\n        prescriptions[presid].patientReceived = true;\n    }\n/*     function fulfillPres() public\n    {\n        //Note:you need to validate the patient ID\n        fulfill(1);\n    } */\n}\n",
  "sourcePath": "C:/Users/Faizan/Desktop/BlockMD/contracts/Doctor.sol",
  "compiler": {
    "name": "solc",
    "version": "0.5.8+commit.23d335f2.Emscripten.clang"
  },
  "schemaVersion": "3.0.10",
  "updatedAt": "2019-06-02T03:57:04.963Z",
  "devdoc": {
    "methods": {}
  },
  "userdoc": {
    "methods": {}
  }
}