{
  "contractName": "Doctor",
  "abi": [
    {
      "constant": true,
      "inputs": [
        {
          "name": "",
          "type": "uint256"
        }
      ],
      "name": "prescriptions",
      "outputs": [
        {
          "name": "id",
          "type": "uint256"
        },
        {
          "name": "patientHealthCardNumber",
          "type": "uint256"
        },
        {
          "name": "drugName",
          "type": "string"
        },
        {
          "name": "frequency",
          "type": "string"
        },
        {
          "name": "dosage",
          "type": "string"
        },
        {
          "name": "patientReceived",
          "type": "bool"
        }
      ],
      "payable": false,
      "stateMutability": "view",
      "type": "function"
    },
    {
      "constant": true,
      "inputs": [
        {
          "name": "",
          "type": "uint256"
        }
      ],
      "name": "patients",
      "outputs": [
        {
          "name": "id",
          "type": "uint256"
        },
        {
          "name": "firstName",
          "type": "string"
        },
        {
          "name": "lastName",
          "type": "string"
        },
        {
          "name": "healthCardNumber",
          "type": "uint256"
        },
        {
          "name": "prescId",
          "type": "uint256"
        }
      ],
      "payable": false,
      "stateMutability": "view",
      "type": "function"
    },
    {
      "constant": true,
      "inputs": [],
      "name": "patientCount",
      "outputs": [
        {
          "name": "",
          "type": "uint256"
        }
      ],
      "payable": false,
      "stateMutability": "view",
      "type": "function"
    },
    {
      "constant": true,
      "inputs": [],
      "name": "prescriptionCount",
      "outputs": [
        {
          "name": "",
          "type": "uint256"
        }
      ],
      "payable": false,
      "stateMutability": "view",
      "type": "function"
    },
    {
      "inputs": [],
      "payable": false,
      "stateMutability": "nonpayable",
      "type": "constructor"
    },
    {
      "constant": false,
      "inputs": [
        {
          "name": "_fname",
          "type": "string"
        },
        {
          "name": "_lname",
          "type": "string"
        },
        {
          "name": "_healthCard",
          "type": "uint256"
        }
      ],
      "name": "addPatient",
      "outputs": [],
      "payable": false,
      "stateMutability": "nonpayable",
      "type": "function"
    },
    {
      "constant": false,
      "inputs": [
        {
          "name": "_healthCard",
          "type": "uint256"
        },
        {
          "name": "_drugName",
          "type": "string"
        },
        {
          "name": "_frequency",
          "type": "string"
        },
        {
          "name": "_dosage",
          "type": "string"
        }
      ],
      "name": "addPrescription",
      "outputs": [],
      "payable": false,
      "stateMutability": "nonpayable",
      "type": "function"
    },
    {
      "constant": false,
      "inputs": [
        {
          "name": "_healthCard",
          "type": "uint256"
        }
      ],
      "name": "fulfillPrescription",
      "outputs": [],
      "payable": false,
      "stateMutability": "nonpayable",
      "type": "function"
    }
  ],
  "bytecode": "0x60806040523480156200001157600080fd5b50620000936040518060400160405280600681526020017f706176616e6900000000000000000000000000000000000000000000000000008152506040518060400160405280600681526020017f4d6163686861000000000000000000000000000000000000000000000000000081525063075bcd156200015060201b60201c565b6200014a63075bcd156040518060400160405280600581526020017f416476696c0000000000000000000000000000000000000000000000000000008152506040518060400160405280600581526020017f4461696c790000000000000000000000000000000000000000000000000000008152506040518060400160405280600581526020017f3130206d6c0000000000000000000000000000000000000000000000000000008152506200020260201b60201c565b620003c0565b6001600081548092919060010191905055506040518060a0016040528060015481526020018481526020018381526020018281526020016000815250600080838152602001908152602001600020600082015181600001556020820151816001019080519060200190620001c692919062000311565b506040820151816002019080519060200190620001e592919062000311565b506060820151816003015560808201518160040155905050505050565b6003600081548092919060010191905055506040518060c00160405280600354815260200185815260200184815260200183815260200182815260200160001515815250600260006003548152602001908152602001600020600082015181600001556020820151816001015560408201518160020190805190602001906200028d92919062000311565b506060820151816003019080519060200190620002ac92919062000311565b506080820151816004019080519060200190620002cb92919062000311565b5060a08201518160050160006101000a81548160ff0219169083151502179055509050506003546000808681526020019081526020016000206004018190555050505050565b828054600181600116156101000203166002900490600052602060002090601f016020900481019282601f106200035457805160ff191683800117855562000385565b8280016001018555821562000385579182015b828111156200038457825182559160200191906001019062000367565b5b50905062000394919062000398565b5090565b620003bd91905b80821115620003b95760008160009055506001016200039f565b5090565b90565b610de580620003d06000396000f3fe608060405234801561001057600080fd5b506004361061007d5760003560e01c806393119a831161005b57806393119a83146103a4578063a0303c41146104cc578063a1b6e2fc146104ea578063b6558498146106dd5761007d565b80630a72fa431461008257806331dfc91b146101de578063686e906214610376575b600080fd5b6101dc6004803603606081101561009857600080fd5b81019080803590602001906401000000008111156100b557600080fd5b8201836020820111156100c757600080fd5b803590602001918460018302840111640100000000831117156100e957600080fd5b91908080601f016020809104026020016040519081016040528093929190818152602001838380828437600081840152601f19601f8201169050808301925050505050505091929192908035906020019064010000000081111561014c57600080fd5b82018360208201111561015e57600080fd5b8035906020019184600183028401116401000000008311171561018057600080fd5b91908080601f016020809104026020016040519081016040528093929190818152602001838380828437600081840152601f19601f820116905080830192505050505050509192919290803590602001909291905050506106fb565b005b61020a600480360360208110156101f457600080fd5b81019080803590602001909291905050506107a9565b6040518087815260200186815260200180602001806020018060200185151515158152602001848103845288818151815260200191508051906020019080838360005b8381101561026857808201518184015260208101905061024d565b50505050905090810190601f1680156102955780820380516001836020036101000a031916815260200191505b50848103835287818151815260200191508051906020019080838360005b838110156102ce5780820151818401526020810190506102b3565b50505050905090810190601f1680156102fb5780820380516001836020036101000a031916815260200191505b50848103825286818151815260200191508051906020019080838360005b83811015610334578082015181840152602081019050610319565b50505050905090810190601f1680156103615780820380516001836020036101000a031916815260200191505b50995050505050505050505060405180910390f35b6103a26004803603602081101561038c57600080fd5b81019080803590602001909291905050506109ba565b005b6103d0600480360360208110156103ba57600080fd5b8101908080359060200190929190505050610a99565b604051808681526020018060200180602001858152602001848152602001838103835287818151815260200191508051906020019080838360005b8381101561042657808201518184015260208101905061040b565b50505050905090810190601f1680156104535780820380516001836020036101000a031916815260200191505b50838103825286818151815260200191508051906020019080838360005b8381101561048c578082015181840152602081019050610471565b50505050905090810190601f1680156104b95780820380516001836020036101000a031916815260200191505b5097505050505050505060405180910390f35b6104d4610bff565b6040518082815260200191505060405180910390f35b6106db6004803603608081101561050057600080fd5b81019080803590602001909291908035906020019064010000000081111561052757600080fd5b82018360208201111561053957600080fd5b8035906020019184600183028401116401000000008311171561055b57600080fd5b91908080601f016020809104026020016040519081016040528093929190818152602001838380828437600081840152601f19601f820116905080830192505050505050509192919290803590602001906401000000008111156105be57600080fd5b8201836020820111156105d057600080fd5b803590602001918460018302840111640100000000831117156105f257600080fd5b91908080601f016020809104026020016040519081016040528093929190818152602001838380828437600081840152601f19601f8201169050808301925050505050505091929192908035906020019064010000000081111561065557600080fd5b82018360208201111561066757600080fd5b8035906020019184600183028401116401000000008311171561068957600080fd5b91908080601f016020809104026020016040519081016040528093929190818152602001838380828437600081840152601f19601f820116905080830192505050505050509192919290505050610c05565b005b6106e5610d0e565b6040518082815260200191505060405180910390f35b6001600081548092919060010191905055506040518060a001604052806001548152602001848152602001838152602001828152602001600081525060008083815260200190815260200160002060008201518160000155602082015181600101908051906020019061076f929190610d14565b50604082015181600201908051906020019061078c929190610d14565b506060820151816003015560808201518160040155905050505050565b6002602052806000526040600020600091509050806000015490806001015490806002018054600181600116156101000203166002900480601f0160208091040260200160405190810160405280929190818152602001828054600181600116156101000203166002900480156108615780601f1061083657610100808354040283529160200191610861565b820191906000526020600020905b81548152906001019060200180831161084457829003601f168201915b505050505090806003018054600181600116156101000203166002900480601f0160208091040260200160405190810160405280929190818152602001828054600181600116156101000203166002900480156108ff5780601f106108d4576101008083540402835291602001916108ff565b820191906000526020600020905b8154815290600101906020018083116108e257829003601f168201915b505050505090806004018054600181600116156101000203166002900480601f01602080910402602001604051908101604052809291908181526020018280546001816001161561010002031660029004801561099d5780601f106109725761010080835404028352916020019161099d565b820191906000526020600020905b81548152906001019060200180831161098057829003601f168201915b5050505050908060050160009054906101000a900460ff16905086565b600080600083815260200190815260200160002060040154905060006002600083815260200190815260200160002060010154905080831415610a65576040517f08c379a00000000000000000000000000000000000000000000000000000000081526004018080602001828103825260128152602001807f496e76616c69642050617469656e74204944000000000000000000000000000081525060200191505060405180910390fd5b60016002600085815260200190815260200160002060050160006101000a81548160ff021916908315150217905550505050565b6000602052806000526040600020600091509050806000015490806001018054600181600116156101000203166002900480601f016020809104026020016040519081016040528092919081815260200182805460018160011615610100020316600290048015610b4b5780601f10610b2057610100808354040283529160200191610b4b565b820191906000526020600020905b815481529060010190602001808311610b2e57829003601f168201915b505050505090806002018054600181600116156101000203166002900480601f016020809104026020016040519081016040528092919081815260200182805460018160011615610100020316600290048015610be95780601f10610bbe57610100808354040283529160200191610be9565b820191906000526020600020905b815481529060010190602001808311610bcc57829003601f168201915b5050505050908060030154908060040154905085565b60015481565b6003600081548092919060010191905055506040518060c0016040528060035481526020018581526020018481526020018381526020018281526020016000151581525060026000600354815260200190815260200160002060008201518160000155602082015181600101556040820151816002019080519060200190610c8e929190610d14565b506060820151816003019080519060200190610cab929190610d14565b506080820151816004019080519060200190610cc8929190610d14565b5060a08201518160050160006101000a81548160ff0219169083151502179055509050506003546000808681526020019081526020016000206004018190555050505050565b60035481565b828054600181600116156101000203166002900490600052602060002090601f016020900481019282601f10610d5557805160ff1916838001178555610d83565b82800160010185558215610d83579182015b82811115610d82578251825591602001919060010190610d67565b5b509050610d909190610d94565b5090565b610db691905b80821115610db2576000816000905550600101610d9a565b5090565b9056fea165627a7a72305820a7aa3d66bc326b691d4b4e78182850193f4d0a24f34057269ecd41e7a750a8e90029",
  "source": "pragma solidity ^0.5.8;\n\ncontract Doctor {\n    // Store patient accounts\n    mapping(uint => Patient) public patients;\n    uint public patientCount;\n\n    mapping(uint => Prescription) public prescriptions;\n    uint public prescriptionCount;\n\n    struct Patient {\n        uint id;\n        string firstName;\n        string lastName;\n        uint healthCardNumber;\n        uint prescId;\n    }\n\n    struct Prescription {\n        uint     id;\n        uint   patientHealthCardNumber;\n        string   drugName;\n        string   frequency;\n        string   dosage;\n        bool     patientReceived;\n    }\n\n    // Constructor\n    constructor () public {\n        // read from json file\n        // create patients\n        addPatient(\"pavani\",\"Machha\",123456789);\n        addPrescription(123456789, \"Advil\", \"Daily\", \"10 ml\");\n    }\n\n    function addPatient(string memory _fname, string memory _lname, uint _healthCard) public {\n        patientCount++;\n        patients[_healthCard] = Patient(patientCount, _fname, _lname, _healthCard, 0);\n    }\n\n    function addPrescription(uint _healthCard, string memory _drugName,string memory _frequency,string memory _dosage)public\n    {\n        prescriptionCount ++;\n        prescriptions[prescriptionCount] = Prescription(prescriptionCount,_healthCard,_drugName,_frequency,_dosage,false);\n        patients[_healthCard].prescId = prescriptionCount;\n    }\n\n    function fulfillPrescription(uint _healthCard) public {\n        uint prescID = patients[_healthCard].prescId;\n        uint healthCard = prescriptions[prescID].patientHealthCardNumber;\n        //require(!)\n        require(_healthCard != healthCard, \"Invalid Patient ID\");\n        // Fulfill\n        prescriptions[_healthCard].patientReceived = true;\n    }\n\n\n}\n",
  "sourcePath": "C:/Users/Faizan/Desktop/BlockMD/contracts/Doctor.sol",
  "compiler": {
    "name": "solc",
    "version": "0.5.8+commit.23d335f2.Emscripten.clang"
  },
  "schemaVersion": "3.0.10",
  "updatedAt": "2019-06-01T19:28:17.005Z",
  "devdoc": {
    "methods": {}
  },
  "userdoc": {
    "methods": {}
  }
}