{
  "contractName": "Doctor",
  "abi": [
    {
      "constant": true,
      "inputs": [
        {
          "name": "",
          "type": "uint256"
        }
      ],
      "name": "prescriptions",
      "outputs": [
        {
          "name": "id",
          "type": "uint256"
        },
        {
          "name": "patientHealthCardNumber",
          "type": "string"
        },
        {
          "name": "drugName",
          "type": "string"
        },
        {
          "name": "frequency",
          "type": "string"
        },
        {
          "name": "dosage",
          "type": "string"
        },
        {
          "name": "patientReceived",
          "type": "bool"
        }
      ],
      "payable": false,
      "stateMutability": "view",
      "type": "function"
    },
    {
      "constant": true,
      "inputs": [],
      "name": "patientCount",
      "outputs": [
        {
          "name": "",
          "type": "uint256"
        }
      ],
      "payable": false,
      "stateMutability": "view",
      "type": "function"
    },
    {
      "constant": true,
      "inputs": [],
      "name": "prescriptionCount",
      "outputs": [
        {
          "name": "",
          "type": "uint256"
        }
      ],
      "payable": false,
      "stateMutability": "view",
      "type": "function"
    },
    {
      "constant": true,
      "inputs": [
        {
          "name": "",
          "type": "string"
        }
      ],
      "name": "patients",
      "outputs": [
        {
          "name": "id",
          "type": "uint256"
        },
        {
          "name": "firstName",
          "type": "string"
        },
        {
          "name": "lastName",
          "type": "string"
        },
        {
          "name": "healthCardNumber",
          "type": "string"
        },
        {
          "name": "prescId",
          "type": "uint256"
        }
      ],
      "payable": false,
      "stateMutability": "view",
      "type": "function"
    },
    {
      "constant": true,
      "inputs": [],
      "name": "prescriptionID",
      "outputs": [
        {
          "name": "",
          "type": "uint256"
        }
      ],
      "payable": false,
      "stateMutability": "view",
      "type": "function"
    },
    {
      "constant": true,
      "inputs": [],
      "name": "healthCard",
      "outputs": [
        {
          "name": "",
          "type": "string"
        }
      ],
      "payable": false,
      "stateMutability": "view",
      "type": "function"
    },
    {
      "inputs": [],
      "payable": false,
      "stateMutability": "nonpayable",
      "type": "constructor"
    },
    {
      "constant": false,
      "inputs": [
        {
          "name": "_fname",
          "type": "string"
        },
        {
          "name": "_lname",
          "type": "string"
        },
        {
          "name": "_healthCard",
          "type": "string"
        }
      ],
      "name": "addPatient",
      "outputs": [],
      "payable": false,
      "stateMutability": "nonpayable",
      "type": "function"
    },
    {
      "constant": false,
      "inputs": [
        {
          "name": "_healthCard",
          "type": "string"
        },
        {
          "name": "_drugName",
          "type": "string"
        },
        {
          "name": "_frequency",
          "type": "string"
        },
        {
          "name": "_dosage",
          "type": "string"
        }
      ],
      "name": "addPrescription",
      "outputs": [],
      "payable": false,
      "stateMutability": "nonpayable",
      "type": "function"
    },
    {
      "constant": false,
      "inputs": [],
      "name": "fulfillPres",
      "outputs": [],
      "payable": false,
      "stateMutability": "nonpayable",
      "type": "function"
    }
  ],
  "bytecode": "0x60806040523480156200001157600080fd5b50620000c46040518060400160405280600681526020017f506176616e6900000000000000000000000000000000000000000000000000008152506040518060400160405280600681526020017f4d616368686100000000000000000000000000000000000000000000000000008152506040518060400160405280600981526020017f31323334353637383900000000000000000000000000000000000000000000008152506200034c60201b60201c565b620001ac6040518060400160405280600981526020017f31323334353637383900000000000000000000000000000000000000000000008152506040518060400160405280600581526020017f416476696c0000000000000000000000000000000000000000000000000000008152506040518060400160405280600581526020017f4461696c790000000000000000000000000000000000000000000000000000008152506040518060400160405280600581526020017f3130206d6c0000000000000000000000000000000000000000000000000000008152506200046c60201b60201c565b6200025e6040518060400160405280600381526020017f4e686900000000000000000000000000000000000000000000000000000000008152506040518060400160405280600581526020017f56756f6e670000000000000000000000000000000000000000000000000000008152506040518060400160405280600c81526020017f313233342d3536372d38393000000000000000000000000000000000000000008152506200034c60201b60201c565b620003466040518060400160405280600c81526020017f313233342d3536372d38393000000000000000000000000000000000000000008152506040518060400160405280600881526020017f4361666665696e650000000000000000000000000000000000000000000000008152506040518060400160405280600d81526020017f4576657279203220686f757273000000000000000000000000000000000000008152506040518060400160405280600881526020017f31207461626c65740000000000000000000000000000000000000000000000008152506200046c60201b60201c565b62000698565b6001600081548092919060010191905055506040518060a00160405280600154815260200184815260200183815260200182815260200160008152506000826040518082805190602001908083835b60208310620003c057805182526020820191506020810190506020830392506200039b565b6001836020036101000a03801982511681845116808217855250505050505090500191505090815260200160405180910390206000820151816000015560208201518160010190805190602001906200041b929190620005e9565b5060408201518160020190805190602001906200043a929190620005e9565b50606082015181600301908051906020019062000459929190620005e9565b5060808201518160040155905050505050565b6003600081548092919060010191905055506040518060c00160405280600354815260200185815260200184815260200183815260200182815260200160001515815250600260006003548152602001908152602001600020600082015181600001556020820151816001019080519060200190620004ed929190620005e9565b5060408201518160020190805190602001906200050c929190620005e9565b5060608201518160030190805190602001906200052b929190620005e9565b5060808201518160040190805190602001906200054a929190620005e9565b5060a08201518160050160006101000a81548160ff0219169083151502179055509050506003546000856040518082805190602001908083835b60208310620005a9578051825260208201915060208101905060208303925062000584565b6001836020036101000a03801982511681845116808217855250505050505090500191505090815260200160405180910390206004018190555050505050565b828054600181600116156101000203166002900490600052602060002090601f016020900481019282601f106200062c57805160ff19168380011785556200065d565b828001600101855582156200065d579182015b828111156200065c5782518255916020019190600101906200063f565b5b5090506200066c919062000670565b5090565b6200069591905b808211156200069157600081600090555060010162000677565b5090565b90565b61130680620006a86000396000f3fe608060405234801561001057600080fd5b50600436106100935760003560e01c8063b655849811610066578063b65584981461071c578063c6009d841461073a578063cbf9aa6c14610954578063d150d47e1461095e578063eedd484a1461097c57610093565b80630581ee82146100985780630c380fc91461031857806331dfc91b14610501578063a0303c41146106fe575b600080fd5b610316600480360360808110156100ae57600080fd5b81019080803590602001906401000000008111156100cb57600080fd5b8201836020820111156100dd57600080fd5b803590602001918460018302840111640100000000831117156100ff57600080fd5b91908080601f016020809104026020016040519081016040528093929190818152602001838380828437600081840152601f19601f8201169050808301925050505050505091929192908035906020019064010000000081111561016257600080fd5b82018360208201111561017457600080fd5b8035906020019184600183028401116401000000008311171561019657600080fd5b91908080601f016020809104026020016040519081016040528093929190818152602001838380828437600081840152601f19601f820116905080830192505050505050509192919290803590602001906401000000008111156101f957600080fd5b82018360208201111561020b57600080fd5b8035906020019184600183028401116401000000008311171561022d57600080fd5b91908080601f016020809104026020016040519081016040528093929190818152602001838380828437600081840152601f19601f8201169050808301925050505050505091929192908035906020019064010000000081111561029057600080fd5b8201836020820111156102a257600080fd5b803590602001918460018302840111640100000000831117156102c457600080fd5b91908080601f016020809104026020016040519081016040528093929190818152602001838380828437600081840152601f19601f8201169050808301925050505050505091929192905050506109ff565b005b6104ff6004803603606081101561032e57600080fd5b810190808035906020019064010000000081111561034b57600080fd5b82018360208201111561035d57600080fd5b8035906020019184600183028401116401000000008311171561037f57600080fd5b91908080601f016020809104026020016040519081016040528093929190818152602001838380828437600081840152601f19601f820116905080830192505050505050509192919290803590602001906401000000008111156103e257600080fd5b8201836020820111156103f457600080fd5b8035906020019184600183028401116401000000008311171561041657600080fd5b91908080601f016020809104026020016040519081016040528093929190818152602001838380828437600081840152601f19601f8201169050808301925050505050505091929192908035906020019064010000000081111561047957600080fd5b82018360208201111561048b57600080fd5b803590602001918460018302840111640100000000831117156104ad57600080fd5b91908080601f016020809104026020016040519081016040528093929190818152602001838380828437600081840152601f19601f820116905080830192505050505050509192919290505050610b72565b005b61052d6004803603602081101561051757600080fd5b8101908080359060200190929190505050610c8a565b60405180878152602001806020018060200180602001806020018615151515815260200185810385528a818151815260200191508051906020019080838360005b8381101561058957808201518184015260208101905061056e565b50505050905090810190601f1680156105b65780820380516001836020036101000a031916815260200191505b50858103845289818151815260200191508051906020019080838360005b838110156105ef5780820151818401526020810190506105d4565b50505050905090810190601f16801561061c5780820380516001836020036101000a031916815260200191505b50858103835288818151815260200191508051906020019080838360005b8381101561065557808201518184015260208101905061063a565b50505050905090810190601f1680156106825780820380516001836020036101000a031916815260200191505b50858103825287818151815260200191508051906020019080838360005b838110156106bb5780820151818401526020810190506106a0565b50505050905090810190601f1680156106e85780820380516001836020036101000a031916815260200191505b509a505050505050505050505060405180910390f35b610706610f33565b6040518082815260200191505060405180910390f35b610724610f39565b6040518082815260200191505060405180910390f35b6107f36004803603602081101561075057600080fd5b810190808035906020019064010000000081111561076d57600080fd5b82018360208201111561077f57600080fd5b803590602001918460018302840111640100000000831117156107a157600080fd5b91908080601f016020809104026020016040519081016040528093929190818152602001838380828437600081840152601f19601f820116905080830192505050505050509192919290505050610f3f565b60405180868152602001806020018060200180602001858152602001848103845288818151815260200191508051906020019080838360005b8381101561084757808201518184015260208101905061082c565b50505050905090810190601f1680156108745780820380516001836020036101000a031916815260200191505b50848103835287818151815260200191508051906020019080838360005b838110156108ad578082015181840152602081019050610892565b50505050905090810190601f1680156108da5780820380516001836020036101000a031916815260200191505b50848103825286818151815260200191508051906020019080838360005b838110156109135780820151818401526020810190506108f8565b50505050905090810190601f1680156109405780820380516001836020036101000a031916815260200191505b509850505050505050505060405180910390f35b61095c611153565b005b61096661115f565b6040518082815260200191505060405180910390f35b610984611165565b6040518080602001828103825283818151815260200191508051906020019080838360005b838110156109c45780820151818401526020810190506109a9565b50505050905090810190601f1680156109f15780820380516001836020036101000a031916815260200191505b509250505060405180910390f35b6003600081548092919060010191905055506040518060c00160405280600354815260200185815260200184815260200183815260200182815260200160001515815250600260006003548152602001908152602001600020600082015181600001556020820151816001019080519060200190610a7e929190611235565b506040820151816002019080519060200190610a9b929190611235565b506060820151816003019080519060200190610ab8929190611235565b506080820151816004019080519060200190610ad5929190611235565b5060a08201518160050160006101000a81548160ff0219169083151502179055509050506003546000856040518082805190602001908083835b60208310610b325780518252602082019150602081019050602083039250610b0f565b6001836020036101000a03801982511681845116808217855250505050505090500191505090815260200160405180910390206004018190555050505050565b6001600081548092919060010191905055506040518060a00160405280600154815260200184815260200183815260200182815260200160008152506000826040518082805190602001908083835b60208310610be45780518252602082019150602081019050602083039250610bc1565b6001836020036101000a0380198251168184511680821785525050505050509050019150509081526020016040518091039020600082015181600001556020820151816001019080519060200190610c3d929190611235565b506040820151816002019080519060200190610c5a929190611235565b506060820151816003019080519060200190610c77929190611235565b5060808201518160040155905050505050565b6002602052806000526040600020600091509050806000015490806001018054600181600116156101000203166002900480601f016020809104026020016040519081016040528092919081815260200182805460018160011615610100020316600290048015610d3c5780601f10610d1157610100808354040283529160200191610d3c565b820191906000526020600020905b815481529060010190602001808311610d1f57829003601f168201915b505050505090806002018054600181600116156101000203166002900480601f016020809104026020016040519081016040528092919081815260200182805460018160011615610100020316600290048015610dda5780601f10610daf57610100808354040283529160200191610dda565b820191906000526020600020905b815481529060010190602001808311610dbd57829003601f168201915b505050505090806003018054600181600116156101000203166002900480601f016020809104026020016040519081016040528092919081815260200182805460018160011615610100020316600290048015610e785780601f10610e4d57610100808354040283529160200191610e78565b820191906000526020600020905b815481529060010190602001808311610e5b57829003601f168201915b505050505090806004018054600181600116156101000203166002900480601f016020809104026020016040519081016040528092919081815260200182805460018160011615610100020316600290048015610f165780601f10610eeb57610100808354040283529160200191610f16565b820191906000526020600020905b815481529060010190602001808311610ef957829003601f168201915b5050505050908060050160009054906101000a900460ff16905086565b60015481565b60035481565b600081805160208101820180518482526020830160208501208183528095505050505050600091509050806000015490806001018054600181600116156101000203166002900480601f0160208091040260200160405190810160405280929190818152602001828054600181600116156101000203166002900480156110075780601f10610fdc57610100808354040283529160200191611007565b820191906000526020600020905b815481529060010190602001808311610fea57829003601f168201915b505050505090806002018054600181600116156101000203166002900480601f0160208091040260200160405190810160405280929190818152602001828054600181600116156101000203166002900480156110a55780601f1061107a576101008083540402835291602001916110a5565b820191906000526020600020905b81548152906001019060200180831161108857829003601f168201915b505050505090806003018054600181600116156101000203166002900480601f0160208091040260200160405190810160405280929190818152602001828054600181600116156101000203166002900480156111435780601f1061111857610100808354040283529160200191611143565b820191906000526020600020905b81548152906001019060200180831161112657829003601f168201915b5050505050908060040154905085565b61115d6001611203565b565b60045481565b60058054600181600116156101000203166002900480601f0160208091040260200160405190810160405280929190818152602001828054600181600116156101000203166002900480156111fb5780601f106111d0576101008083540402835291602001916111fb565b820191906000526020600020905b8154815290600101906020018083116111de57829003601f168201915b505050505081565b60016002600083815260200190815260200160002060050160006101000a81548160ff02191690831515021790555050565b828054600181600116156101000203166002900490600052602060002090601f016020900481019282601f1061127657805160ff19168380011785556112a4565b828001600101855582156112a4579182015b828111156112a3578251825591602001919060010190611288565b5b5090506112b191906112b5565b5090565b6112d791905b808211156112d35760008160009055506001016112bb565b5090565b9056fea165627a7a7230582081021f97044697057da2344b185338f5f95b5a70a8571ece29dc6d8dd103cf060029",
  "source": "pragma solidity ^0.5.8;\n\ncontract Doctor {\n    // Store patient accounts\n    mapping(string => Patient) public patients;\n    uint public patientCount;\n\n    mapping(uint => Prescription) public prescriptions;\n    uint public prescriptionCount;\n    uint public prescriptionID;\n    string public healthCard;\n\n    struct Patient {\n        uint id;\n        string firstName;\n        string lastName;\n        string healthCardNumber;\n        uint prescId;\n    }\n\n    struct Prescription {\n        uint id;\n        string patientHealthCardNumber;\n        string drugName;\n        string frequency;\n        string dosage;\n        bool patientReceived;\n    }\n\n    // Constructor\n    constructor () public {\n        // read from json file\n        // create patients\n        addPatient(\"Pavani\", \"Machha\", \"123456789\");\n        addPrescription(\"123456789\", \"Advil\", \"Daily\", \"10 ml\");\n        addPatient(\"Nhi\", \"Vuong\", \"1234-567-890\");\n        addPrescription(\"1234-567-890\", \"Caffeine\", \"Every 2 hours\", \"1 tablet\");\n    }\n\n    function addPatient(string memory _fname, string memory _lname, string memory _healthCard) public {\n        patientCount++;\n        patients[_healthCard] = Patient(patientCount, _fname, _lname, _healthCard, 0);\n    }\n\n    function addPrescription(string memory _healthCard, string memory _drugName,string memory _frequency,string memory _dosage)public\n    {\n        prescriptionCount ++;\n        prescriptions[prescriptionCount] = Prescription(prescriptionCount,_healthCard,_drugName,_frequency,_dosage,false);\n        patients[_healthCard].prescId = prescriptionCount;\n    }\n\n     /* function fulfillPrescription(string memory _healthCard) public {\n        //string memory prescID = patients[_healthCard].prescId;\n        //string memory healthCard = prescriptions[prescID].patientHealthCardNumber;\n\n        prescriptionID = patients[_healthCard].prescId;\n        healthCard = prescriptions[prescriptionID].patientHealthCardNumber;\n\n        require(keccak256(abi.encodePacked(healthCard))!=keccak256(abi.encodePacked(_healthCard)), \"Invalid Patient ID\");\n        // Fulfill\n        prescriptions[prescriptionID].patientReceived = true;\n    }  */\n\n    function fulfill(uint presid) private\n    {\n        prescriptions[presid].patientReceived = true;\n    }\n    function fulfillPres() public\n    {\n        //Note:you need to validate the patient ID\n        fulfill(1);\n    }\n}\n",
  "sourcePath": "C:/Users/Faizan/Desktop/BlockMD/contracts/Doctor.sol",
  "compiler": {
    "name": "solc",
    "version": "0.5.8+commit.23d335f2.Emscripten.clang"
  },
  "schemaVersion": "3.0.10",
  "updatedAt": "2019-06-01T23:36:06.190Z",
  "devdoc": {
    "methods": {}
  },
  "userdoc": {
    "methods": {}
  }
}