{
  "contractName": "Prescription",
  "abi": [
    {
      "constant": true,
      "inputs": [],
      "name": "patient",
      "outputs": [
        {
          "name": "",
          "type": "string"
        }
      ],
      "payable": false,
      "stateMutability": "view",
      "type": "function"
    },
    {
      "inputs": [],
      "payable": false,
      "stateMutability": "nonpayable",
      "type": "constructor"
    }
  ],
  "bytecode": "0x608060405234801561001057600080fd5b506040518060400160405280600b81526020017f43616e64696461746520310000000000000000000000000000000000000000008152506000908051906020019061005c929190610062565b50610107565b828054600181600116156101000203166002900490600052602060002090601f016020900481019282601f106100a357805160ff19168380011785556100d1565b828001600101855582156100d1579182015b828111156100d05782518255916020019190600101906100b5565b5b5090506100de91906100e2565b5090565b61010491905b808211156101005760008160009055506001016100e8565b5090565b90565b61017d806101166000396000f3fe608060405234801561001057600080fd5b506004361061002b5760003560e01c8063bd96bd2014610030575b600080fd5b6100386100b3565b6040518080602001828103825283818151815260200191508051906020019080838360005b8381101561007857808201518184015260208101905061005d565b50505050905090810190601f1680156100a55780820380516001836020036101000a031916815260200191505b509250505060405180910390f35b60008054600181600116156101000203166002900480601f0160208091040260200160405190810160405280929190818152602001828054600181600116156101000203166002900480156101495780601f1061011e57610100808354040283529160200191610149565b820191906000526020600020905b81548152906001019060200180831161012c57829003601f168201915b50505050508156fea165627a7a72305820474e8b181b0dc8b6c2f9155886d7c730f0137c8286d9de4d5fd04a3c242126410029",
  "source": "pragma solidity ^0.5.8;\n\ncontract Prescription {\n    // Store candidate\n    // Read candidate\n    string public patient;\n\n    // Constructor\n    constructor () public {\n        patient = \"Candidate 1\";\n    }\n}\n",
  "sourcePath": "C:/Users/Faizan/Desktop/BlockMD/contracts/Prescription.sol",
  "compiler": {
    "name": "solc",
    "version": "0.5.8+commit.23d335f2.Emscripten.clang"
  },
  "schemaVersion": "3.0.10",
  "updatedAt": "2019-06-01T15:30:31.851Z",
  "devdoc": {
    "methods": {}
  },
  "userdoc": {
    "methods": {}
  }
}